{
  "abi": [
    {
      "inputs": [
        {
          "internalType": "address",
          "name": "_rc",
          "type": "address"
        },
        {
          "internalType": "address",
          "name": "_treasury",
          "type": "address"
        }
      ],
      "stateMutability": "nonpayable",
      "type": "constructor"
    },
    {
      "inputs": [],
      "name": "CANT_FINALIZE_YET",
      "type": "error"
    },
    {
      "inputs": [],
      "name": "NOT_OWNER",
      "type": "error"
    },
    {
      "inputs": [],
      "name": "TOO_MANY",
      "type": "error"
    },
    {
      "inputs": [],
      "name": "TOO_MANY_PRIZES",
      "type": "error"
    },
    {
      "inputs": [],
      "name": "WRONG_PRICE",
      "type": "error"
    },
    {
      "inputs": [],
      "name": "ZERO_ADDRESS",
      "type": "error"
    },
    {
      "inputs": [],
      "name": "ZERO_WINNERS",
      "type": "error"
    },
    {
      "anonymous": false,
      "inputs": [
        {
          "indexed": true,
          "internalType": "address",
          "name": "owner",
          "type": "address"
        },
        {
          "indexed": true,
          "internalType": "address",
          "name": "spender",
          "type": "address"
        },
        {
          "indexed": true,
          "internalType": "uint256",
          "name": "id",
          "type": "uint256"
        }
      ],
      "name": "Approval",
      "type": "event"
    },
    {
      "anonymous": false,
      "inputs": [
        {
          "indexed": true,
          "internalType": "address",
          "name": "owner",
          "type": "address"
        },
        {
          "indexed": true,
          "internalType": "address",
          "name": "operator",
          "type": "address"
        },
        {
          "indexed": false,
          "internalType": "bool",
          "name": "approved",
          "type": "bool"
        }
      ],
      "name": "ApprovalForAll",
      "type": "event"
    },
    {
      "anonymous": false,
      "inputs": [
        {
          "indexed": true,
          "internalType": "uint256",
          "name": "roundId",
          "type": "uint256"
        },
        {
          "indexed": true,
          "internalType": "address",
          "name": "participant",
          "type": "address"
        },
        {
          "indexed": false,
          "internalType": "uint256",
          "name": "participantId",
          "type": "uint256"
        }
      ],
      "name": "ParticipantAdded",
      "type": "event"
    },
    {
      "anonymous": false,
      "inputs": [
        {
          "indexed": true,
          "internalType": "uint256",
          "name": "roundId",
          "type": "uint256"
        },
        {
          "indexed": true,
          "internalType": "address",
          "name": "participant",
          "type": "address"
        },
        {
          "indexed": false,
          "internalType": "uint256",
          "name": "amount",
          "type": "uint256"
        }
      ],
      "name": "Redistribution",
      "type": "event"
    },
    {
      "anonymous": false,
      "inputs": [
        {
          "indexed": true,
          "internalType": "uint256",
          "name": "roundId",
          "type": "uint256"
        },
        {
          "indexed": false,
          "internalType": "uint256",
          "name": "randomness",
          "type": "uint256"
        }
      ],
      "name": "RoundFinalized",
      "type": "event"
    },
    {
      "anonymous": false,
      "inputs": [
        {
          "indexed": true,
          "internalType": "uint256",
          "name": "roundId",
          "type": "uint256"
        }
      ],
      "name": "RoundStarted",
      "type": "event"
    },
    {
      "anonymous": false,
      "inputs": [
        {
          "indexed": false,
          "internalType": "string",
          "name": "baseURI",
          "type": "string"
        }
      ],
      "name": "SetBaseURI",
      "type": "event"
    },
    {
      "anonymous": false,
      "inputs": [
        {
          "indexed": false,
          "internalType": "uint256",
          "name": "everyoneWinsProbability",
          "type": "uint256"
        }
      ],
      "name": "SetEveryoneWinsProbability",
      "type": "event"
    },
    {
      "anonymous": false,
      "inputs": [
        {
          "indexed": false,
          "internalType": "uint256",
          "name": "finalizerReward",
          "type": "uint256"
        }
      ],
      "name": "SetFinalizerReward",
      "type": "event"
    },
    {
      "anonymous": false,
      "inputs": [
        {
          "indexed": false,
          "internalType": "uint256",
          "name": "minDuration",
          "type": "uint256"
        }
      ],
      "name": "SetMinDuration",
      "type": "event"
    },
    {
      "anonymous": false,
      "inputs": [
        {
          "indexed": false,
          "internalType": "address",
          "name": "owner",
          "type": "address"
        }
      ],
      "name": "SetOwner",
      "type": "event"
    },
    {
      "anonymous": false,
      "inputs": [
        {
          "indexed": false,
          "internalType": "uint256",
          "name": "price",
          "type": "uint256"
        }
      ],
      "name": "SetPrice",
      "type": "event"
    },
    {
      "anonymous": false,
      "inputs": [
        {
          "indexed": false,
          "internalType": "uint256[]",
          "name": "prizes",
          "type": "uint256[]"
        }
      ],
      "name": "SetPrizes",
      "type": "event"
    },
    {
      "anonymous": false,
      "inputs": [
        {
          "indexed": false,
          "internalType": "address",
          "name": "rc",
          "type": "address"
        }
      ],
      "name": "SetRandomnessClient",
      "type": "event"
    },
    {
      "anonymous": false,
      "inputs": [
        {
          "indexed": false,
          "internalType": "address",
          "name": "treasury",
          "type": "address"
        }
      ],
      "name": "SetTreasury",
      "type": "event"
    },
    {
      "anonymous": false,
      "inputs": [
        {
          "indexed": false,
          "internalType": "uint256",
          "name": "treasuryReserve",
          "type": "uint256"
        }
      ],
      "name": "SetTreasuryReserve",
      "type": "event"
    },
    {
      "anonymous": false,
      "inputs": [
        {
          "indexed": true,
          "internalType": "address",
          "name": "from",
          "type": "address"
        },
        {
          "indexed": true,
          "internalType": "address",
          "name": "to",
          "type": "address"
        },
        {
          "indexed": true,
          "internalType": "uint256",
          "name": "id",
          "type": "uint256"
        }
      ],
      "name": "Transfer",
      "type": "event"
    },
    {
      "anonymous": false,
      "inputs": [
        {
          "indexed": true,
          "internalType": "uint256",
          "name": "roundId",
          "type": "uint256"
        },
        {
          "indexed": true,
          "internalType": "address",
          "name": "participant",
          "type": "address"
        },
        {
          "indexed": false,
          "internalType": "uint256",
          "name": "prizeId",
          "type": "uint256"
        },
        {
          "indexed": false,
          "internalType": "uint256",
          "name": "prizeAmount",
          "type": "uint256"
        }
      ],
      "name": "WonPrize",
      "type": "event"
    },
    {
      "inputs": [
        {
          "internalType": "address",
          "name": "spender",
          "type": "address"
        },
        {
          "internalType": "uint256",
          "name": "id",
          "type": "uint256"
        }
      ],
      "name": "approve",
      "outputs": [],
      "stateMutability": "nonpayable",
      "type": "function"
    },
    {
      "inputs": [
        {
          "internalType": "address",
          "name": "owner",
          "type": "address"
        }
      ],
      "name": "balanceOf",
      "outputs": [
        {
          "internalType": "uint256",
          "name": "",
          "type": "uint256"
        }
      ],
      "stateMutability": "view",
      "type": "function"
    },
    {
      "inputs": [],
      "name": "baseURI",
      "outputs": [
        {
          "internalType": "string",
          "name": "",
          "type": "string"
        }
      ],
      "stateMutability": "view",
      "type": "function"
    },
    {
      "inputs": [],
      "name": "everyoneWinsProbability",
      "outputs": [
        {
          "internalType": "uint256",
          "name": "",
          "type": "uint256"
        }
      ],
      "stateMutability": "view",
      "type": "function"
    },
    {
      "inputs": [],
      "name": "finalizeRound",
      "outputs": [],
      "stateMutability": "nonpayable",
      "type": "function"
    },
    {
      "inputs": [],
      "name": "finalizerReward",
      "outputs": [
        {
          "internalType": "uint256",
          "name": "",
          "type": "uint256"
        }
      ],
      "stateMutability": "view",
      "type": "function"
    },
    {
      "inputs": [
        {
          "internalType": "uint256",
          "name": "",
          "type": "uint256"
        }
      ],
      "name": "getApproved",
      "outputs": [
        {
          "internalType": "address",
          "name": "",
          "type": "address"
        }
      ],
      "stateMutability": "view",
      "type": "function"
    },
    {
      "inputs": [
        {
          "internalType": "address",
          "name": "_owner",
          "type": "address"
        }
      ],
      "name": "getOwnerTokenIds",
      "outputs": [
        {
          "internalType": "uint256[]",
          "name": "",
          "type": "uint256[]"
        }
      ],
      "stateMutability": "view",
      "type": "function"
    },
    {
      "inputs": [
        {
          "internalType": "address",
          "name": "_owner",
          "type": "address"
        }
      ],
      "name": "getOwnerTokens",
      "outputs": [
        {
          "components": [
            {
              "internalType": "uint256",
              "name": "tokenId",
              "type": "uint256"
            },
            {
              "internalType": "uint256",
              "name": "roundId",
              "type": "uint256"
            },
            {
              "internalType": "uint256",
              "name": "prizePoolSize",
              "type": "uint256"
            },
            {
              "internalType": "uint256",
              "name": "prizeRank",
              "type": "uint256"
            }
          ],
          "internalType": "struct DumpingBandits.OwnerToken[]",
          "name": "",
          "type": "tuple[]"
        }
      ],
      "stateMutability": "view",
      "type": "function"
    },
    {
      "inputs": [
        {
          "internalType": "uint256",
          "name": "_roundId",
          "type": "uint256"
        }
      ],
      "name": "getRoundTokens",
      "outputs": [
        {
          "components": [
            {
              "internalType": "uint256",
              "name": "tokenId",
              "type": "uint256"
            },
            {
              "internalType": "address",
              "name": "owner",
              "type": "address"
            },
            {
              "internalType": "uint256",
              "name": "prizePoolSize",
              "type": "uint256"
            },
            {
              "internalType": "uint256",
              "name": "prizeRank",
              "type": "uint256"
            }
          ],
          "internalType": "struct DumpingBandits.RoundToken[]",
          "name": "",
          "type": "tuple[]"
        }
      ],
      "stateMutability": "view",
      "type": "function"
    },
    {
      "inputs": [
        {
          "internalType": "address",
          "name": "",
          "type": "address"
        },
        {
          "internalType": "address",
          "name": "",
          "type": "address"
        }
      ],
      "name": "isApprovedForAll",
      "outputs": [
        {
          "internalType": "bool",
          "name": "",
          "type": "bool"
        }
      ],
      "stateMutability": "view",
      "type": "function"
    },
    {
      "inputs": [],
      "name": "lastRoundLastTokenId",
      "outputs": [
        {
          "internalType": "uint256",
          "name": "",
          "type": "uint256"
        }
      ],
      "stateMutability": "view",
      "type": "function"
    },
    {
      "inputs": [],
      "name": "minDuration",
      "outputs": [
        {
          "internalType": "uint256",
          "name": "",
          "type": "uint256"
        }
      ],
      "stateMutability": "view",
      "type": "function"
    },
    {
      "inputs": [],
      "name": "name",
      "outputs": [
        {
          "internalType": "string",
          "name": "",
          "type": "string"
        }
      ],
      "stateMutability": "view",
      "type": "function"
    },
    {
      "inputs": [],
      "name": "owner",
      "outputs": [
        {
          "internalType": "address",
          "name": "",
          "type": "address"
        }
      ],
      "stateMutability": "view",
      "type": "function"
    },
    {
      "inputs": [
        {
          "internalType": "uint256",
          "name": "id",
          "type": "uint256"
        }
      ],
      "name": "ownerOf",
      "outputs": [
        {
          "internalType": "address",
          "name": "owner",
          "type": "address"
        }
      ],
      "stateMutability": "view",
      "type": "function"
    },
    {
      "inputs": [],
      "name": "participate",
      "outputs": [],
      "stateMutability": "payable",
      "type": "function"
    },
    {
      "inputs": [],
      "name": "price",
      "outputs": [
        {
          "internalType": "uint256",
          "name": "",
          "type": "uint256"
        }
      ],
      "stateMutability": "view",
      "type": "function"
    },
    {
      "inputs": [
        {
          "internalType": "uint256",
          "name": "_tokenId",
          "type": "uint256"
        }
      ],
      "name": "prizeRank",
      "outputs": [
        {
          "internalType": "uint256",
          "name": "",
          "type": "uint256"
        }
      ],
      "stateMutability": "view",
      "type": "function"
    },
    {
      "inputs": [
        {
          "internalType": "uint256",
          "name": "",
          "type": "uint256"
        }
      ],
      "name": "prizes",
      "outputs": [
        {
          "internalType": "uint256",
          "name": "",
          "type": "uint256"
        }
      ],
      "stateMutability": "view",
      "type": "function"
    },
    {
      "inputs": [],
      "name": "rc",
      "outputs": [
        {
          "internalType": "contract IRandomnessClient",
          "name": "",
          "type": "address"
        }
      ],
      "stateMutability": "view",
      "type": "function"
    },
    {
      "inputs": [],
      "name": "roundId",
      "outputs": [
        {
          "internalType": "uint256",
          "name": "",
          "type": "uint256"
        }
      ],
      "stateMutability": "view",
      "type": "function"
    },
    {
      "inputs": [],
      "name": "roundParticipants",
      "outputs": [
        {
          "internalType": "uint256",
          "name": "",
          "type": "uint256"
        }
      ],
      "stateMutability": "view",
      "type": "function"
    },
    {
      "inputs": [],
      "name": "roundStartedAt",
      "outputs": [
        {
          "internalType": "uint256",
          "name": "",
          "type": "uint256"
        }
      ],
      "stateMutability": "view",
      "type": "function"
    },
    {
      "inputs": [
        {
          "internalType": "uint256",
          "name": "",
          "type": "uint256"
        },
        {
          "internalType": "uint256",
          "name": "",
          "type": "uint256"
        }
      ],
      "name": "roundWinnerTokenIds",
      "outputs": [
        {
          "internalType": "uint256",
          "name": "",
          "type": "uint256"
        }
      ],
      "stateMutability": "view",
      "type": "function"
    },
    {
      "inputs": [
        {
          "internalType": "uint256",
          "name": "_roundId",
          "type": "uint256"
        }
      ],
      "name": "roundWinnerTokenIdsArray",
      "outputs": [
        {
          "internalType": "uint256[]",
          "name": "",
          "type": "uint256[]"
        }
      ],
      "stateMutability": "view",
      "type": "function"
    },
    {
      "inputs": [
        {
          "internalType": "uint256",
          "name": "",
          "type": "uint256"
        },
        {
          "internalType": "uint256",
          "name": "",
          "type": "uint256"
        }
      ],
      "name": "roundWinners",
      "outputs": [
        {
          "internalType": "address",
          "name": "",
          "type": "address"
        }
      ],
      "stateMutability": "view",
      "type": "function"
    },
    {
      "inputs": [
        {
          "internalType": "uint256",
          "name": "_roundId",
          "type": "uint256"
        }
      ],
      "name": "roundWinnersArray",
      "outputs": [
        {
          "internalType": "address[]",
          "name": "",
          "type": "address[]"
        }
      ],
      "stateMutability": "view",
      "type": "function"
    },
    {
      "inputs": [
        {
          "internalType": "uint256",
          "name": "",
          "type": "uint256"
        }
      ],
      "name": "rounds",
      "outputs": [
        {
          "internalType": "uint256",
          "name": "randomness",
          "type": "uint256"
        },
        {
          "internalType": "uint256",
          "name": "participants",
          "type": "uint256"
        },
        {
          "internalType": "uint256",
          "name": "lastRoundLastTokenId",
          "type": "uint256"
        }
      ],
      "stateMutability": "view",
      "type": "function"
    },
    {
      "inputs": [
        {
          "internalType": "address",
          "name": "from",
          "type": "address"
        },
        {
          "internalType": "address",
          "name": "to",
          "type": "address"
        },
        {
          "internalType": "uint256",
          "name": "id",
          "type": "uint256"
        }
      ],
      "name": "safeTransferFrom",
      "outputs": [],
      "stateMutability": "nonpayable",
      "type": "function"
    },
    {
      "inputs": [
        {
          "internalType": "address",
          "name": "from",
          "type": "address"
        },
        {
          "internalType": "address",
          "name": "to",
          "type": "address"
        },
        {
          "internalType": "uint256",
          "name": "id",
          "type": "uint256"
        },
        {
          "internalType": "bytes",
          "name": "data",
          "type": "bytes"
        }
      ],
      "name": "safeTransferFrom",
      "outputs": [],
      "stateMutability": "nonpayable",
      "type": "function"
    },
    {
      "inputs": [
        {
          "internalType": "address",
          "name": "operator",
          "type": "address"
        },
        {
          "internalType": "bool",
          "name": "approved",
          "type": "bool"
        }
      ],
      "name": "setApprovalForAll",
      "outputs": [],
      "stateMutability": "nonpayable",
      "type": "function"
    },
    {
      "inputs": [
        {
          "internalType": "string",
          "name": "_baseURI",
          "type": "string"
        }
      ],
      "name": "setBaseURI",
      "outputs": [],
      "stateMutability": "nonpayable",
      "type": "function"
    },
    {
      "inputs": [
        {
          "internalType": "uint256",
          "name": "_everyoneWinsProbability",
          "type": "uint256"
        }
      ],
      "name": "setEveryoneWinsProbability",
      "outputs": [],
      "stateMutability": "nonpayable",
      "type": "function"
    },
    {
      "inputs": [
        {
          "internalType": "uint256",
          "name": "_finalizerReward",
          "type": "uint256"
        }
      ],
      "name": "setFinalizerReward",
      "outputs": [],
      "stateMutability": "nonpayable",
      "type": "function"
    },
    {
      "inputs": [
        {
          "internalType": "uint256",
          "name": "_minDuration",
          "type": "uint256"
        }
      ],
      "name": "setMinDuration",
      "outputs": [],
      "stateMutability": "nonpayable",
      "type": "function"
    },
    {
      "inputs": [
        {
          "internalType": "address",
          "name": "_owner",
          "type": "address"
        }
      ],
      "name": "setOwner",
      "outputs": [],
      "stateMutability": "nonpayable",
      "type": "function"
    },
    {
      "inputs": [
        {
          "internalType": "uint256",
          "name": "_price",
          "type": "uint256"
        }
      ],
      "name": "setPrice",
      "outputs": [],
      "stateMutability": "nonpayable",
      "type": "function"
    },
    {
      "inputs": [
        {
          "internalType": "uint256[]",
          "name": "_prizes",
          "type": "uint256[]"
        }
      ],
      "name": "setPrizes",
      "outputs": [],
      "stateMutability": "nonpayable",
      "type": "function"
    },
    {
      "inputs": [
        {
          "internalType": "address",
          "name": "_rc",
          "type": "address"
        }
      ],
      "name": "setRandomnessClient",
      "outputs": [],
      "stateMutability": "nonpayable",
      "type": "function"
    },
    {
      "inputs": [
        {
          "internalType": "address",
          "name": "_treasury",
          "type": "address"
        }
      ],
      "name": "setTreasury",
      "outputs": [],
      "stateMutability": "nonpayable",
      "type": "function"
    },
    {
      "inputs": [
        {
          "internalType": "uint256",
          "name": "_treasuryReserve",
          "type": "uint256"
        }
      ],
      "name": "setTreasuryReserve",
      "outputs": [],
      "stateMutability": "nonpayable",
      "type": "function"
    },
    {
      "inputs": [
        {
          "internalType": "bytes4",
          "name": "interfaceId",
          "type": "bytes4"
        }
      ],
      "name": "supportsInterface",
      "outputs": [
        {
          "internalType": "bool",
          "name": "",
          "type": "bool"
        }
      ],
      "stateMutability": "view",
      "type": "function"
    },
    {
      "inputs": [],
      "name": "symbol",
      "outputs": [
        {
          "internalType": "string",
          "name": "",
          "type": "string"
        }
      ],
      "stateMutability": "view",
      "type": "function"
    },
    {
      "inputs": [
        {
          "internalType": "uint256",
          "name": "",
          "type": "uint256"
        }
      ],
      "name": "tokenIdRound",
      "outputs": [
        {
          "internalType": "uint256",
          "name": "",
          "type": "uint256"
        }
      ],
      "stateMutability": "view",
      "type": "function"
    },
    {
      "inputs": [
        {
          "internalType": "uint256",
          "name": "_tokenId",
          "type": "uint256"
        }
      ],
      "name": "tokenInfo",
      "outputs": [
        {
          "internalType": "string",
          "name": "",
          "type": "string"
        }
      ],
      "stateMutability": "view",
      "type": "function"
    },
    {
      "inputs": [
        {
          "internalType": "uint256",
          "name": "_tokenId",
          "type": "uint256"
        }
      ],
      "name": "tokenURI",
      "outputs": [
        {
          "internalType": "string",
          "name": "",
          "type": "string"
        }
      ],
      "stateMutability": "view",
      "type": "function"
    },
    {
      "inputs": [
        {
          "internalType": "address",
          "name": "from",
          "type": "address"
        },
        {
          "internalType": "address",
          "name": "to",
          "type": "address"
        },
        {
          "internalType": "uint256",
          "name": "id",
          "type": "uint256"
        }
      ],
      "name": "transferFrom",
      "outputs": [],
      "stateMutability": "nonpayable",
      "type": "function"
    },
    {
      "inputs": [],
      "name": "treasury",
      "outputs": [
        {
          "internalType": "contract IBanditTreasury",
          "name": "",
          "type": "address"
        }
      ],
      "stateMutability": "view",
      "type": "function"
    },
    {
      "inputs": [],
      "name": "treasuryReserve",
      "outputs": [
        {
          "internalType": "uint256",
          "name": "",
          "type": "uint256"
        }
      ],
      "stateMutability": "view",
      "type": "function"
    }
  ],
  "bytecode": {
    "object": "0x600160065560c0604052601b60809081527f68747470733a2f2f64756d70696e6762616e646974732f6e66742f000000000060a052600a90620000439082620003af565b50678ac7230489e80000600b55610384600c5564e8d4a51000600d556040805160608101825267058d15e17628000081526703782dace9d900006020820152670214e8348c4f000091810191909152620000a290600e90600362000298565b50674563918244f40000600f556702c68af0bb1400006010556000601155600060125560006013556000601455348015620000dc57600080fd5b50604051620039bb380380620039bb833981016040819052620000ff9162000498565b6040518060400160405280600f81526020016e44756d70696e672042616e6469747360881b8152506040518060400160405280600681526020016510905391125560d21b8152508160009081620001579190620003af565b506001620001668282620003af565b5050506001600160a01b03821615806200018757506001600160a01b038116155b15620001a65760405163538ba4f960e01b815260040160405180910390fd5b600780546001600160a01b031916339081179091556040519081527f167d3e9c1016ab80e58802ca9da10ce5c6a0f4debc46a2e7a2cd9e56899a4fb59060200160405180910390a1600880546001600160a01b0319166001600160a01b0384169081179091556040519081527f240d8bf6972a9e438d69cd9b1c79a0414806127b38f7b84dd65168e180ad22bc9060200160405180910390a1600980546001600160a01b0319166001600160a01b0383169081179091556040519081527fcb7ef3e545f5cdb893f5c568ba710fe08f336375a2d9fd66e161033f8fc09ef39060200160405180910390a15050620004d0565b828054828255906000526020600020908101928215620002e1579160200282015b82811115620002e157825182906001600160401b0316905591602001919060010190620002b9565b50620002ef929150620002f3565b5090565b5b80821115620002ef5760008155600101620002f4565b634e487b7160e01b600052604160045260246000fd5b600181811c908216806200033557607f821691505b6020821081036200035657634e487b7160e01b600052602260045260246000fd5b50919050565b601f821115620003aa57600081815260208120601f850160051c81016020861015620003855750805b601f850160051c820191505b81811015620003a65782815560010162000391565b5050505b505050565b81516001600160401b03811115620003cb57620003cb6200030a565b620003e381620003dc845462000320565b846200035c565b602080601f8311600181146200041b5760008415620004025750858301515b600019600386901b1c1916600185901b178555620003a6565b600085815260208120601f198616915b828110156200044c578886015182559484019460019091019084016200042b565b50858210156200046b5787850151600019600388901b60f8161c191681555b5050505050600190811b01905550565b80516001600160a01b03811681146200049357600080fd5b919050565b60008060408385031215620004ac57600080fd5b620004b7836200047b565b9150620004c7602084016200047b565b90509250929050565b6134db80620004e06000396000f3fe6080604052600436106102c95760003560e01c80638cd221c911610175578063bba33931116100dc578063d40dc86911610095578063e985e9c51161006f578063e985e9c5146108c8578063eccb3a4f14610903578063f0f4426014610923578063f1816b1e1461094357600080fd5b8063d40dc86914610865578063d63d4af01461087b578063e66b6000146108a857600080fd5b8063bba33931146107c7578063be03d23d146107e7578063c0f2165e146107fd578063c87b56dd1461081d578063cc33c8751461083d578063d11711a21461085d57600080fd5b8063a035b1fe1161012e578063a035b1fe1461070e578063a16e56fc14610724578063a22cb4651461073a578063a6bd686b1461075a578063b88d4fde1461077a578063b904b4d01461079a57600080fd5b80638cd221c9146106635780638da5cb5b1461067957806391b7f5ed1461069957806395d89b41146106b957806397811c4c146106ce578063994a644e146106ee57600080fd5b8063296af1671161023457806361d027b3116101ed57806370a08231116101c757806370a08231146105925780637883bc9a146105b25780637b808ecc146105df5780638c65c81f1461060c57600080fd5b806361d027b31461053d5780636352211e1461055d5780636c0360eb1461057d57600080fd5b8063296af1671461049757806342842e0e146104bb5780634f183cc5146104db57806355f804b3146104f1578063567157611461051157806359297dbf1461052757600080fd5b806312f773321161028657806312f77332146103e257806313af4035146104025780631674bade146104225780631e820325146104425780631ecd794f1461045757806323b872dd1461047757600080fd5b806301ffc9a7146102ce57806303e3cd6a1461030357806306fdde031461033b578063081812fc1461035d5780630821808714610393578063095ea7b3146103c0575b600080fd5b3480156102da57600080fd5b506102ee6102e9366004612a99565b610963565b60405190151581526020015b60405180910390f35b34801561030f57600080fd5b5061032361031e366004612ab6565b6109b5565b6040516001600160a01b0390911681526020016102fa565b34801561034757600080fd5b506103506109ed565b6040516102fa9190612afc565b34801561036957600080fd5b50610323610378366004612b2f565b6004602052600090815260409020546001600160a01b031681565b34801561039f57600080fd5b506103b36103ae366004612b2f565b610a7b565b6040516102fa9190612b48565b3480156103cc57600080fd5b506103e06103db366004612bcc565b610c6f565b005b3480156103ee57600080fd5b50600854610323906001600160a01b031681565b34801561040e57600080fd5b506103e061041d366004612bf6565b610d56565b34801561042e57600080fd5b506103e061043d366004612b2f565b610dd6565b34801561044e57600080fd5b506103e0610e36565b34801561046357600080fd5b506103e0610472366004612b2f565b611038565b34801561048357600080fd5b506103e0610492366004612c11565b611098565b3480156104a357600080fd5b506104ad600f5481565b6040519081526020016102fa565b3480156104c757600080fd5b506103e06104d6366004612c11565b61125f565b3480156104e757600080fd5b506104ad60145481565b3480156104fd57600080fd5b506103e061050c366004612c94565b611334565b34801561051d57600080fd5b506104ad600c5481565b34801561053357600080fd5b506104ad60105481565b34801561054957600080fd5b50600954610323906001600160a01b031681565b34801561056957600080fd5b50610323610578366004612b2f565b61139c565b34801561058957600080fd5b506103506113f3565b34801561059e57600080fd5b506104ad6105ad366004612bf6565b611400565b3480156105be57600080fd5b506105d26105cd366004612b2f565b611463565b6040516102fa9190612d29565b3480156105eb57600080fd5b506104ad6105fa366004612b2f565b60166020526000908152604090205481565b34801561061857600080fd5b50610648610627366004612b2f565b60156020526000908152604090208054600182015460029092015490919083565b604080519384526020840192909252908201526060016102fa565b34801561066f57600080fd5b506104ad60135481565b34801561068557600080fd5b50600754610323906001600160a01b031681565b3480156106a557600080fd5b506103e06106b4366004612b2f565b6114cf565b3480156106c557600080fd5b5061035061152f565b3480156106da57600080fd5b506103e06106e9366004612bf6565b61153c565b3480156106fa57600080fd5b506104ad610709366004612ab6565b6115dc565b34801561071a57600080fd5b506104ad600b5481565b34801561073057600080fd5b506104ad60115481565b34801561074657600080fd5b506103e0610755366004612d76565b61160d565b34801561076657600080fd5b506104ad610775366004612b2f565b611679565b34801561078657600080fd5b506103e0610795366004612db2565b6117a1565b3480156107a657600080fd5b506107ba6107b5366004612b2f565b611866565b6040516102fa9190612e4d565b3480156107d357600080fd5b506103e06107e2366004612b2f565b6118c7565b3480156107f357600080fd5b506104ad600d5481565b34801561080957600080fd5b506103e0610818366004612e85565b611927565b34801561082957600080fd5b50610350610838366004612b2f565b611a66565b34801561084957600080fd5b50610350610858366004612b2f565b611a9a565b6103e0611bac565b34801561087157600080fd5b506104ad60125481565b34801561088757600080fd5b5061089b610896366004612bf6565b611ca7565b6040516102fa9190612f2b565b3480156108b457600080fd5b506107ba6108c3366004612bf6565b611eba565b3480156108d457600080fd5b506102ee6108e3366004612f82565b600560209081526000928352604080842090915290825290205460ff1681565b34801561090f57600080fd5b506104ad61091e366004612b2f565b611fb2565b34801561092f57600080fd5b506103e061093e366004612bf6565b611fd3565b34801561094f57600080fd5b506103e061095e366004612b2f565b612073565b60006301ffc9a760e01b6001600160e01b03198316148061099457506380ac58cd60e01b6001600160e01b03198316145b806109af5750635b5e139f60e01b6001600160e01b03198316145b92915050565b601760205281600052604060002081815481106109d157600080fd5b6000918252602090912001546001600160a01b03169150829050565b600080546109fa90612fb5565b80601f0160208091040260200160405190810160405280929190818152602001828054610a2690612fb5565b8015610a735780601f10610a4857610100808354040283529160200191610a73565b820191906000526020600020905b815481529060010190602001808311610a5657829003601f168201915b505050505081565b60008181526015602090815260408083208151606081810184528254825260018301548286015260029092015481840152858552601784528285208054845181870281018701909552808552929591949193929091830182828015610b0957602002820191906000526020600020905b81546001600160a01b03168152600190910190602001808311610aeb575b505050505090506000826040015190506000836020015167ffffffffffffffff811115610b3857610b38612c4d565b604051908082528060200260200182016040528015610b9d57816020015b610b8a60405180608001604052806000815260200160006001600160a01b0316815260200160008152602001600081525090565b815260200190600190039081610b565790505b50905060005b8460200151811015610c65576000610bbb8285613005565b610bc6906001613005565b90506000610bd38261139c565b90506000610bf8600b548851670de0b6b3a7640000610bf29190613018565b906120d3565b90506000610c0584611679565b90506040518060800160405280858152602001846001600160a01b0316815260200183815260200182815250868681518110610c4357610c4361302f565b6020026020010181905250505050508080610c5d90613045565b915050610ba3565b5095945050505050565b6000818152600260205260409020546001600160a01b031633811480610cb857506001600160a01b038116600090815260056020908152604080832033845290915290205460ff165b610cfa5760405162461bcd60e51b815260206004820152600e60248201526d1393d517d055551213d49256915160921b60448201526064015b60405180910390fd5b60008281526004602052604080822080546001600160a01b0319166001600160a01b0387811691821790925591518593918516917f8c5be1e5ebec7d5bd14f71427d1e84f3dd0314c0f7b2291e5b200ac8c7c3b92591a4505050565b6007546001600160a01b03163314610d81576040516338ebc58960e11b815260040160405180910390fd5b600780546001600160a01b0319166001600160a01b0383169081179091556040519081527f167d3e9c1016ab80e58802ca9da10ce5c6a0f4debc46a2e7a2cd9e56899a4fb5906020015b60405180910390a150565b6007546001600160a01b03163314610e01576040516338ebc58960e11b815260040160405180910390fd5b600c8190556040518181527f7eded2c549bae9a064369318a940074f1c91f965cc3f7aed87ea7dba1c150c0c90602001610dcb565b610e3e6120ef565b610e5b57604051630fc2437760e11b815260040160405180910390fd5b600654600114610e9a5760405162461bcd60e51b815260206004820152600a6024820152695245454e5452414e435960b01b6044820152606401610cf1565b6002600655600854604080516355573dc360e11b815290516000926001600160a01b03169163aaae7b869160048083019260209291908290030181865afa158015610ee9573d6000803e3d6000fd5b505050506040513d601f19601f82011682018060405250810190610f0d919061305e565b9050600080610f1b8361211c565b60408051606081018252868152601254602080830191825260145483850190815260138054600090815260158452868120865181559451600186015591516002909401939093559154825260178152929020845194965092945092610f8392918601906129cb565b5060135460009081526018602090815260409091208351610fa692850190612a30565b508251600003610fbd57610fb86122cc565b610fc6565b610fc68361239e565b610fd233600f54612480565b610fda6124d1565b601254601454610fea9190613005565b601455600060118190556012556013546040518581527f2b034c48d6d3c5fa40da8afd25e88ee8ad074a546e1a3f05a860c6106b99b82b9060200160405180910390a2505060016006555050565b6007546001600160a01b03163314611063576040516338ebc58960e11b815260040160405180910390fd5b60108190556040518181527f7e2e70f554f7a916170e6f8b5fa7b10481e82c540902b810b83bbae02df025d190602001610dcb565b6000818152600260205260409020546001600160a01b038481169116146110ee5760405162461bcd60e51b815260206004820152600a60248201526957524f4e475f46524f4d60b01b6044820152606401610cf1565b6001600160a01b0382166111385760405162461bcd60e51b81526020600482015260116024820152701253959053125117d49150d25412515395607a1b6044820152606401610cf1565b336001600160a01b038416148061117257506001600160a01b038316600090815260056020908152604080832033845290915290205460ff165b8061119357506000818152600460205260409020546001600160a01b031633145b6111d05760405162461bcd60e51b815260206004820152600e60248201526d1393d517d055551213d49256915160921b6044820152606401610cf1565b6001600160a01b0380841660008181526003602090815260408083208054600019019055938616808352848320805460010190558583526002825284832080546001600160a01b03199081168317909155600490925284832080549092169091559251849392917fddf252ad1be2c89b69c2b068fc378daa952ba7f163c4a11628f55a4df523b3ef91a4505050565b61126a838383611098565b6001600160a01b0382163b15806113135750604051630a85bd0160e11b8082523360048301526001600160a01b03858116602484015260448301849052608060648401526000608484015290919084169063150b7a029060a4016020604051808303816000875af11580156112e3573d6000803e3d6000fd5b505050506040513d601f19601f820116820180604052508101906113079190613077565b6001600160e01b031916145b61132f5760405162461bcd60e51b8152600401610cf190613094565b505050565b6007546001600160a01b0316331461135f576040516338ebc58960e11b815260040160405180910390fd5b600a61136b828261310c565b507f23c8c9488efebfd474e85a7956de6f39b17c7ab88502d42a623db2d8e382bbaa600a604051610dcb91906131cc565b6000818152600260205260409020546001600160a01b0316806113ee5760405162461bcd60e51b815260206004820152600a6024820152691393d517d3525395115160b21b6044820152606401610cf1565b919050565b600a80546109fa90612fb5565b60006001600160a01b0382166114475760405162461bcd60e51b815260206004820152600c60248201526b5a45524f5f4144445245535360a01b6044820152606401610cf1565b506001600160a01b031660009081526003602052604090205490565b6000818152601760209081526040918290208054835181840281018401909452808452606093928301828280156114c357602002820191906000526020600020905b81546001600160a01b031681526001909101906020018083116114a5575b50505050509050919050565b6007546001600160a01b031633146114fa576040516338ebc58960e11b815260040160405180910390fd5b600b8190556040518181527f4f5539c0409dfc4cb06f64cbd31237e1fbfe443f531584bf4dd77ec7fc5ba7b190602001610dcb565b600180546109fa90612fb5565b6007546001600160a01b03163314611567576040516338ebc58960e11b815260040160405180910390fd5b6001600160a01b03811661158e5760405163538ba4f960e01b815260040160405180910390fd5b600880546001600160a01b0319166001600160a01b0383169081179091556040519081527f240d8bf6972a9e438d69cd9b1c79a0414806127b38f7b84dd65168e180ad22bc90602001610dcb565b601860205281600052604060002081815481106115f857600080fd5b90600052602060002001600091509150505481565b3360008181526005602090815260408083206001600160a01b03871680855290835292819020805460ff191686151590811790915590519081529192917f17307eab39ab6107e8899845ad3d59bd9653f200f220920489ca2b5937696c31910160405180910390a35050565b6000818152601660209081526040808320548084526015835281842082516060810184528154815260018201548186015260029091015481840152818552601884528285208054845181870281018701909552808552929491938693909283018282801561170657602002820191906000526020600020905b8154815260200190600101908083116116f2575b505050505090506000600d54670de0b6b3a7640000846000015161172a9190613257565b1180159150611740575060001995945050505050565b60015b8251811015611794578683828151811061175f5761175f61302f565b60200260200101510361178257611777816001613005565b979650505050505050565b8061178c81613045565b915050611743565b5060009695505050505050565b6117ac858585611098565b6001600160a01b0384163b15806118435750604051630a85bd0160e11b808252906001600160a01b0386169063150b7a02906117f49033908a90899089908990600401613279565b6020604051808303816000875af1158015611813573d6000803e3d6000fd5b505050506040513d601f19601f820116820180604052508101906118379190613077565b6001600160e01b031916145b61185f5760405162461bcd60e51b8152600401610cf190613094565b5050505050565b6000818152601860209081526040918290208054835181840281018401909452808452606093928301828280156114c357602002820191906000526020600020905b8154815260200190600101908083116118a85750505050509050919050565b6007546001600160a01b031633146118f2576040516338ebc58960e11b815260040160405180910390fd5b600f8190556040518181527f3e7248ce6e198f34feb7985860c18db7c24b8bfd1694296e521204548b0fbb0c90602001610dcb565b6007546001600160a01b03163314611952576040516338ebc58960e11b815260040160405180910390fd5b80516000036119745760405163a75f8d3560e01b815260040160405180910390fd5b805163ffffffff11611999576040516328592ca560e11b815260040160405180910390fd5b6000805b82518110156119df578281815181106119b8576119b861302f565b6020026020010151826119cb9190613005565b9150806119d781613045565b91505061199d565b50670de0b6b3a7640000601054826119f79190613005565b1115611a1657604051631648186960e31b815260040160405180910390fd5b8151611a2990600e906020850190612a30565b507fc1053cca128bc27ed92cf297a3b9d6eaab9a735abd9f97861d4fbde40b985b53600e604051611a5a91906132cd565b60405180910390a15050565b6060600a611a73836124e9565b604051602001611a84929190613308565b6040516020818303038152906040529050919050565b6000818152601660209081526040808320548084526017835281842080548351818602810186019094528084526060959294929392830182828015611b0857602002820191906000526020600020905b81546001600160a01b03168152600190910190602001808311611aea575b505050505090506000815190506000611b2086611679565b90506000198103611b5e57611b34846124e9565b604051602001611b44919061338f565b604051602081830303815290604052945050505050919050565b80600003611b7f57611b6f846124e9565b604051602001611b4491906133d8565b611b88846124e9565b611b91826124e9565b611b9a846124e9565b604051602001611b449392919061341f565b600654600114611beb5760405162461bcd60e51b815260206004820152600a6024820152695245454e5452414e435960b01b6044820152606401610cf1565b6002600655600b543414611c1257604051631da0f5f960e21b815260040160405180910390fd5b601154611c2157611c2161257c565b60128054906000611c3183613045565b91905055506000601254601454611c489190613005565b6013546000828152601660205260409020559050611c6633826125c3565b6013546040518281523391907f4458602c75f7945f69e6a982b698a0ba5068f2ae7324e34dac6ef89360380e2b9060200160405180910390a3506001600655565b60606000611cb483611eba565b90508051600003611d1b576040805160008082526020820190925290611d13565b611d006040518060800160405280600081526020016000815260200160008152602001600081525090565b815260200190600190039081611cd55790505b509392505050565b6000815167ffffffffffffffff811115611d3757611d37612c4d565b604051908082528060200260200182016040528015611d9357816020015b611d806040518060800160405280600081526020016000815260200160008152602001600081525090565b815260200190600190039081611d555790505b50905060005b8251811015611d13576000838281518110611db657611db661302f565b602090810291909101810151600081815260168352604080822054808352601785528183208054835181880281018801909452808452949650909492939192909190830182828015611e3157602002820191906000526020600020905b81546001600160a01b03168152600190910190602001808311611e13575b505050505090506000611e55600b548351670de0b6b3a7640000610bf29190613018565b90506000611e6285611679565b9050604051806080016040528086815260200185815260200183815260200182815250878781518110611e9757611e9761302f565b602002602001018190525050505050508080611eb290613045565b915050611d99565b60606000611ec783611400565b905080600003611ee7576040805160008082526020820190925290611d13565b60008167ffffffffffffffff811115611f0257611f02612c4d565b604051908082528060200260200182016040528015611f2b578160200160208202803683370190505b509050600060015b601254601454611f439190613005565b8111611fa857856001600160a01b0316611f5c8261139c565b6001600160a01b031603611f965780838381518110611f7d57611f7d61302f565b602090810291909101015281611f9281613045565b9250505b80611fa081613045565b915050611f33565b5090949350505050565b600e8181548110611fc257600080fd5b600091825260209091200154905081565b6007546001600160a01b03163314611ffe576040516338ebc58960e11b815260040160405180910390fd5b6001600160a01b0381166120255760405163538ba4f960e01b815260040160405180910390fd5b600980546001600160a01b0319166001600160a01b0383169081179091556040519081527fcb7ef3e545f5cdb893f5c568ba710fe08f336375a2d9fd66e161033f8fc09ef390602001610dcb565b6007546001600160a01b0316331461209e576040516338ebc58960e11b815260040160405180910390fd5b600d8190556040518181527f9415f363ad9afde5b77185413860109cbf078b442ace9a0319f1ac90b84df9bd90602001610dcb565b60006120e88383670de0b6b3a7640000612693565b9392505050565b60006120fc601154151590565b80156121175750600c546011546121139190613005565b4210155b905090565b606080600d54670de0b6b3a7640000846121369190613257565b101561215a5750506040805160008082526020820190815281830190925292909150565b600e5460125460009061216f908690846126b1565b90506000815167ffffffffffffffff81111561218d5761218d612c4d565b6040519080825280602002602001820160405280156121b6578160200160208202803683370190505b5090506000825167ffffffffffffffff8111156121d5576121d5612c4d565b6040519080825280602002602001820160405280156121fe578160200160208202803683370190505b50905060005b83518110156122bf576122376014548583815181106122255761222561302f565b60200260200101516105789190613005565b8382815181106122495761224961302f565b60200260200101906001600160a01b031690816001600160a01b03168152505060145484828151811061227e5761227e61302f565b60200260200101516122909190613005565b8282815181106122a2576122a261302f565b6020908102919091010152806122b781613045565b915050612204565b5090969095509350505050565b60006122f4601054670de0b6b3a76400006122e79190613492565b600f54610bf29047613492565b90506000612318601254670de0b6b3a76400006123119190613018565b83906127d3565b905060015b601254811161132f576000612339826014546105789190613005565b90506123458184612480565b806001600160a01b03166013547fae718d5005a53e2ce03ae49ffa0750b76ada9a2309cf05356a2ec06ba13a92658560405161238391815260200190565b60405180910390a3508061239681613045565b91505061231d565b60006123b9601054670de0b6b3a76400006122e79190613492565b905060005b825181101561132f5760008382815181106123db576123db61302f565b602002602001015190506000612417600e84815481106123fd576123fd61302f565b9060005260206000200154856120d390919063ffffffff16565b90506124238282612480565b60135460408051858152602081018490526001600160a01b03851692917f01901b784b0a5a9753a8551528cb8faec83886f379113da512c80111edbc8860910160405180910390a35050808061247890613045565b9150506123be565b600080600080600085875af190508061132f5760405162461bcd60e51b815260206004820152601360248201527211551217d514905394d1915497d19052531151606a1b6044820152606401610cf1565b6009546124e7906001600160a01b031647612480565b565b606060006124f6836127e8565b600101905060008167ffffffffffffffff81111561251657612516612c4d565b6040519080825280601f01601f191660200182016040528015612540576020820181803683370190505b5090508181016020015b600019016f181899199a1a9b1b9c1cb0b131b232b360811b600a86061a8153600a850494508461254a57509392505050565b6013805490600061258c83613045565b9091555050426011556013546040517f33a701182892fd888ed152ca2ac23771a32e814469b7cd255965471e1af3a65990600090a2565b6125cd82826128c0565b6001600160a01b0382163b15806126735750604051630a85bd0160e11b80825233600483015260006024830181905260448301849052608060648401526084830152906001600160a01b0384169063150b7a029060a4016020604051808303816000875af1158015612643573d6000803e3d6000fd5b505050506040513d601f19601f820116820180604052508101906126679190613077565b6001600160e01b031916145b61268f5760405162461bcd60e51b8152600401610cf190613094565b5050565b60008260001904841183021582026126aa57600080fd5b5091020490565b606060008263ffffffff1667ffffffffffffffff8111156126d4576126d4612c4d565b6040519080825280602002602001820160405280156126fd578160200160208202803683370190505b5090508460005b8463ffffffff168110156127c85763ffffffff6405deece66d92909202600b0160101c82169160009061273990881684613257565b612744906001613005565b9050600160005b8381101561278e57828682815181106127665761276661302f565b60200260200101510361277c576000915061278e565b8061278681613045565b91505061274b565b5080156127c157818584815181106127a8576127a861302f565b6020908102919091010152826127bd81613045565b9350505b5050612704565b509095945050505050565b60006120e883670de0b6b3a764000084612693565b60008072184f03e93ff9f4daa797ed6e38ed64bf6a1f0160401b83106128275772184f03e93ff9f4daa797ed6e38ed64bf6a1f0160401b830492506040015b6d04ee2d6d415b85acef81000000008310612853576d04ee2d6d415b85acef8100000000830492506020015b662386f26fc10000831061287157662386f26fc10000830492506010015b6305f5e1008310612889576305f5e100830492506008015b612710831061289d57612710830492506004015b606483106128af576064830492506002015b600a83106109af5760010192915050565b6001600160a01b03821661290a5760405162461bcd60e51b81526020600482015260116024820152701253959053125117d49150d25412515395607a1b6044820152606401610cf1565b6000818152600260205260409020546001600160a01b0316156129605760405162461bcd60e51b815260206004820152600e60248201526d1053149150511657d3525395115160921b6044820152606401610cf1565b6001600160a01b038216600081815260036020908152604080832080546001019055848352600290915280822080546001600160a01b0319168417905551839291907fddf252ad1be2c89b69c2b068fc378daa952ba7f163c4a11628f55a4df523b3ef908290a45050565b828054828255906000526020600020908101928215612a20579160200282015b82811115612a2057825182546001600160a01b0319166001600160a01b039091161782556020909201916001909101906129eb565b50612a2c929150612a6b565b5090565b828054828255906000526020600020908101928215612a20579160200282015b82811115612a20578251825591602001919060010190612a50565b5b80821115612a2c5760008155600101612a6c565b6001600160e01b031981168114612a9657600080fd5b50565b600060208284031215612aab57600080fd5b81356120e881612a80565b60008060408385031215612ac957600080fd5b50508035926020909101359150565b60005b83811015612af3578181015183820152602001612adb565b50506000910152565b6020815260008251806020840152612b1b816040850160208701612ad8565b601f01601f19169190910160400192915050565b600060208284031215612b4157600080fd5b5035919050565b602080825282518282018190526000919060409081850190868401855b82811015612ba857815180518552868101516001600160a01b03168786015285810151868601526060908101519085015260809093019290850190600101612b65565b5091979650505050505050565b80356001600160a01b03811681146113ee57600080fd5b60008060408385031215612bdf57600080fd5b612be883612bb5565b946020939093013593505050565b600060208284031215612c0857600080fd5b6120e882612bb5565b600080600060608486031215612c2657600080fd5b612c2f84612bb5565b9250612c3d60208501612bb5565b9150604084013590509250925092565b634e487b7160e01b600052604160045260246000fd5b604051601f8201601f1916810167ffffffffffffffff81118282101715612c8c57612c8c612c4d565b604052919050565b60006020808385031215612ca757600080fd5b823567ffffffffffffffff80821115612cbf57600080fd5b818501915085601f830112612cd357600080fd5b813581811115612ce557612ce5612c4d565b612cf7601f8201601f19168501612c63565b91508082528684828501011115612d0d57600080fd5b8084840185840137600090820190930192909252509392505050565b6020808252825182820181905260009190848201906040850190845b81811015612d6a5783516001600160a01b031683529284019291840191600101612d45565b50909695505050505050565b60008060408385031215612d8957600080fd5b612d9283612bb5565b915060208301358015158114612da757600080fd5b809150509250929050565b600080600080600060808688031215612dca57600080fd5b612dd386612bb5565b9450612de160208701612bb5565b935060408601359250606086013567ffffffffffffffff80821115612e0557600080fd5b818801915088601f830112612e1957600080fd5b813581811115612e2857600080fd5b896020828501011115612e3a57600080fd5b9699959850939650602001949392505050565b6020808252825182820181905260009190848201906040850190845b81811015612d6a57835183529284019291840191600101612e69565b60006020808385031215612e9857600080fd5b823567ffffffffffffffff80821115612eb057600080fd5b818501915085601f830112612ec457600080fd5b813581811115612ed657612ed6612c4d565b8060051b9150612ee7848301612c63565b8181529183018401918481019088841115612f0157600080fd5b938501935b83851015612f1f57843582529385019390850190612f06565b98975050505050505050565b602080825282518282018190526000919060409081850190868401855b82811015612ba857815180518552868101518786015285810151868601526060908101519085015260809093019290850190600101612f48565b60008060408385031215612f9557600080fd5b612f9e83612bb5565b9150612fac60208401612bb5565b90509250929050565b600181811c90821680612fc957607f821691505b602082108103612fe957634e487b7160e01b600052602260045260246000fd5b50919050565b634e487b7160e01b600052601160045260246000fd5b808201808211156109af576109af612fef565b80820281158282048414176109af576109af612fef565b634e487b7160e01b600052603260045260246000fd5b60006001820161305757613057612fef565b5060010190565b60006020828403121561307057600080fd5b5051919050565b60006020828403121561308957600080fd5b81516120e881612a80565b60208082526010908201526f155394d0519157d49150d2541251539560821b604082015260600190565b601f82111561132f57600081815260208120601f850160051c810160208610156130e55750805b601f850160051c820191505b81811015613104578281556001016130f1565b505050505050565b815167ffffffffffffffff81111561312657613126612c4d565b61313a816131348454612fb5565b846130be565b602080601f83116001811461316f57600084156131575750858301515b600019600386901b1c1916600185901b178555613104565b600085815260208120601f198616915b8281101561319e5788860151825594840194600190910190840161317f565b50858210156131bc5787850151600019600388901b60f8161c191681555b5050505050600190811b01905550565b60006020808352600084546131e081612fb5565b80848701526040600180841660008114613201576001811461321b57613249565b60ff1985168984015283151560051b890183019550613249565b896000528660002060005b858110156132415781548b8201860152908301908801613226565b8a0184019650505b509398975050505050505050565b60008261327457634e487b7160e01b600052601260045260246000fd5b500690565b6001600160a01b038681168252851660208201526040810184905260806060820181905281018290526000828460a0840137600060a0848401015260a0601f19601f85011683010190509695505050505050565b6020808252825482820181905260008481528281209092916040850190845b81811015612d6a578354835260019384019392850192016132ec565b600080845461331681612fb5565b6001828116801561332e576001811461334357613372565b60ff1984168752821515830287019450613372565b8860005260208060002060005b858110156133695781548a820152908401908201613350565b50505082870194505b505050508351613386818360208801612ad8565b01949350505050565b6502937bab732160d51b8152600082516133b0816006850160208701612ad8565b70202d2045766572796f6e652077696e732160781b6006939091019283015250601701919050565b6502937bab732160d51b8152600082516133f9816006850160208701612ad8565b6e1016902234b2103737ba103bb4b71760891b6006939091019283015250601501919050565b6502937bab732160d51b815260008451613440816006850160208901612ad8565b6201016960ed1b6006918401918201528451613463816009840160208901612ad8565b602f60f81b60099290910191820152835161348581600a840160208801612ad8565b01600a0195945050505050565b818103818111156109af576109af612fef56fea2646970667358221220ee5268cf44ef8f89aaf50759e1dfc51e1d046ab8f89e244ace9b1f0192a666d964736f6c63430008120033",
    "linkReferences": {}
  },
  "methodIdentifiers": {
    "approve(address,uint256)": "095ea7b3",
    "balanceOf(address)": "70a08231",
    "baseURI()": "6c0360eb",
    "everyoneWinsProbability()": "be03d23d",
    "finalizeRound()": "1e820325",
    "finalizerReward()": "296af167",
    "getApproved(uint256)": "081812fc",
    "getOwnerTokenIds(address)": "e66b6000",
    "getOwnerTokens(address)": "d63d4af0",
    "getRoundTokens(uint256)": "08218087",
    "isApprovedForAll(address,address)": "e985e9c5",
    "lastRoundLastTokenId()": "4f183cc5",
    "minDuration()": "56715761",
    "name()": "06fdde03",
    "owner()": "8da5cb5b",
    "ownerOf(uint256)": "6352211e",
    "participate()": "d11711a2",
    "price()": "a035b1fe",
    "prizeRank(uint256)": "a6bd686b",
    "prizes(uint256)": "eccb3a4f",
    "rc()": "12f77332",
    "roundId()": "8cd221c9",
    "roundParticipants()": "d40dc869",
    "roundStartedAt()": "a16e56fc",
    "roundWinnerTokenIds(uint256,uint256)": "994a644e",
    "roundWinnerTokenIdsArray(uint256)": "b904b4d0",
    "roundWinners(uint256,uint256)": "03e3cd6a",
    "roundWinnersArray(uint256)": "7883bc9a",
    "rounds(uint256)": "8c65c81f",
    "safeTransferFrom(address,address,uint256)": "42842e0e",
    "safeTransferFrom(address,address,uint256,bytes)": "b88d4fde",
    "setApprovalForAll(address,bool)": "a22cb465",
    "setBaseURI(string)": "55f804b3",
    "setEveryoneWinsProbability(uint256)": "f1816b1e",
    "setFinalizerReward(uint256)": "bba33931",
    "setMinDuration(uint256)": "1674bade",
    "setOwner(address)": "13af4035",
    "setPrice(uint256)": "91b7f5ed",
    "setPrizes(uint256[])": "c0f2165e",
    "setRandomnessClient(address)": "97811c4c",
    "setTreasury(address)": "f0f44260",
    "setTreasuryReserve(uint256)": "1ecd794f",
    "supportsInterface(bytes4)": "01ffc9a7",
    "symbol()": "95d89b41",
    "tokenIdRound(uint256)": "7b808ecc",
    "tokenInfo(uint256)": "cc33c875",
    "tokenURI(uint256)": "c87b56dd",
    "transferFrom(address,address,uint256)": "23b872dd",
    "treasury()": "61d027b3",
    "treasuryReserve()": "59297dbf"
  },
  "id": 25
}